:020000040800F2
:100000007093002059020008A5A30008258B000862
:1000100081A3000849100008E9DE00080000000084
:100020000000000000000000000000009D0100082A
:10003000A917000800000000F101000831CB0008FA
:1000400073020008730200087302000873020008BC
:1000500073020008730200087302000873020008AC
:10006000730200087302000873020008730200089C
:10007000730200087302000873020008D516000816
:10008000E1160008ED160008B50900087302000823
:10009000730200087302000873020008730200086C
:1000A0007302000845CE00087302000873020008BE
:1000B000730200087302000851CE000873020008A2
:1000C000730200087302000873020008730200083C
:1000D00073020008C5DD0008D1DD0008DDDD000881
:1000E000730200087302000873020008730200081C
:1000F000730200087302000873020008730200080C
:1001000073020008730200087302000873020008FB
:100110005DD90008730200085DCE00087302000874
:10012000F916000873020008730200087302000841
:1001300073020008730200087302000873020008CB
:1001400073020008730200087302000873020008BB
:1001500073020008730200087302000873020008AB
:10016000730200087302000873020008730200089B
:100170007302000873020008730200080000000008
:100180007302000873020008DFF80CD000F0D4FB03
:1001900000480047E1C00108709300202B4B19680C
:1001A0000868B0E8F04F80F30988BFF36F8F4FF015
:1001B000000080F3118870470000000006480068C6
:1001C000006880F3088862B661B6BFF34F8FBFF353
:1001D0006F8F00DF00BF00BF08ED00E0DFF80C000C
:1001E000016841F470010160704700BF88ED00E0D4
:1001F000EFF30980BFF36F8F144B1A681EF0100FD6
:1002000008BF20ED108A20E9F04F106008B44FF0CD
:10021000500080F31188BFF34F8FBFF36F8F1CF036
:10022000B1FD4FF0000080F3118808BC1968086820
:10023000B0E8F04F1EF0100F08BFB0EC108A80F34A
:100240000988BFF36F8F704700BF00BF50000020C8
:10025000EFF30580704700000648804706480047D6
:10026000FEE7FEE7FEE7FEE7FEE7FEE7FEE7FEE766
:10027000FEE7FEE7D1CB00088901000810B5431A5C
:10028000934209D28318881803E010F8011D03F87F
:10029000011D521EF9D210BD40EA01039B0703D095
:1002A00009E008C9121F08C0042AFAD203E011F8B5
:1002B000013B00F8013B521EF9D210BDD2B201E061
:1002C00000F8012B491EFBD270470022F6E710B55B
:1002D00013460A4604461946FFF7F0FF204610BDB4
:1002E000421C10F8011B0029FBD1801A704730B561
:1002F00004460020034600E05B1C934203D2E05C0E
:10030000CD5C401BF8D030BD034611F8012B00F83E
:10031000012B002AF9D1184670472DE9FE4F80467F
:1003200081EA0300C00F0C46009021F0004123F049
:100330000045B8EB0200A94105D24046214690464F
:100340001C460B46024623F00040104347D0270DC1
:10035000C7F30A00C3F30A510290401A01904028E3
:100360006BDAC3F3130040F4801B0098924620B16F
:100370000023D2EB030A63EB0B0B01985946C0F143
:100380004002504600F031FA06460D4650465946A6
:10039000019A00F049FA10EB08006141002487EA55
:1003A000115284EAE7731A4340D0009A62B3019A6B
:1003B000012A4FEA075215DC001B61EB02014FF0E6
:1003C000004202EA0752CDE90042001C41F58011CB
:1003D00032462B4600F049FA03B0BDE8F08F4046A4
:1003E0002146F9E7001B61EB0201001C41F5801377
:1003F00000185B412018A2F5001747EB030140EA03
:10040000D570B6196D4111E06D084FEA360645EA20
:10041000C0754FEA0752001B61EB0201001C41F559
:10042000801149084FEA30000019514132462B46ED
:1004300003B0BDE8F04F00F009BA00980122400077
:100440000023D0EB020263EBE073009821464FEAF1
:10045000E074B8EB000061EB0401E9E783F00043CE
:100460005BE781F0004158E72DE9FE4F81EA030484
:1004700004F0004421F0004100944FF0000B23F001
:10048000004350EA01045ED052EA03045BD0C3F398
:100490000A54C1F30A552C44A4F2F3340194A0FB8E
:1004A0000254C1F3130141F48011C3F3130343F465
:1004B000801301FB024400FB034E840A970A44EABE
:1004C000815447EA8357A4FB076802958D0A05FB10
:1004D00007854FEA932C04FB0C542705029D4FEA35
:1004E000065847EA1637B5EB08056EEB070C870E82
:1004F000920E47EA811742EA8312A7FB0201B6EB8C
:100500000B0164EB00042B0D43EA0C335E1844EB43
:100510001C50DA465146E7FB0201C5F313044FEACB
:100520000B3343EA14534FEA0432019C43EA0603B7
:10053000A4F10C040294009CCDE900B400F095F9FC
:1005400003B0BDE8F08F00200146F9E72DE9F04D3A
:1005500081EA030404F0004B21F0004514464FF0FB
:10056000000A23F0004150EA050220D054EA0102BB
:100570001DD0C5F30A570246C5F31303C1F3130098
:10058000C1F30A5640F4801543F48013A7EB060824
:10059000101BD64608F2FD3873EB050002D308F1B4
:1005A000010801E092185B41B8F1000F03DA002066
:1005B0000146BDE8F08D00204FF4801106468446C8
:1005C0000EE0171B73EB050705D3121B63EB050346
:1005D00006434CEA010C49084FEA300092185B418F
:1005E00050EA0107EDD152EA030012D082EA04007A
:1005F00083EA0501084305D0101BAB4106D2012256
:10060000002306E000224FF0004302E06FF00102F9
:1006100053101AEB06004CEB085110EB0A0041EBAB
:100620000B01BDE8F04D00F011B90EB5C10F80EA25
:10063000E0700844CA07002140F233438DE80E0001
:100640000A460B4600F011F903B000BD0EB540F2AA
:10065000334102910021CDE900110A460B4600F01A
:1006600004F903B000BD70B5C1F30A5201F00045B2
:100670000024C1F3130140F2FF3341F480119A4288
:1006800001DA002070BD40F233439A42A2F23342B5
:1006900003DC524200F0B8F800E090402C43F1D067
:1006A000404270BDC1F30A5210B5C1F3130140F2CC
:1006B000FF3341F480119A4201DA002010BD40F26C
:1006C00033439A42A2F2334203DC524200F09CF8D8
:1006D00010BD904010BD00F0004230F000400AD044
:1006E000C10D01F56071C0F3160042EA0151C20864
:1006F00040071143704700200146704730B5041E83
:1007000071F1000404DB4FF00044404264EB01014E
:10071000141E73F1000405DB1C464FF000435242E7
:1007200063EB04038B4208BF824230BD30B5041E28
:1007300071F1000404DB4FF00044404264EB01011E
:10074000141E73F1000405DB1C464FF000435242B7
:1007500063EB0403994208BF904230BD30B50B46AD
:10076000014600202022012409E021FA02F59D42E1
:1007700005D303FA02F5491B04FA02F52844151EB5
:10078000A2F10102F1DC30BD2DE9F05F0546002049
:1007900092469B4688460646814640241BE02846F2
:1007A00041464746224600F02FF853465A46C01AA3
:1007B000914110D311461846224600F016F82D1A22
:1007C00067EB01084F4622460120002100F00DF89A
:1007D00017EB00094E41201EA4F10104DFDC48465E
:1007E00031462A464346BDE8F09F202A04DB203AE2
:1007F00000FA02F1002070479140C2F1200320FA74
:1008000003F3194390407047202A04DB203A21FA71
:1008100002F00021704721FA02F3D040C2F1200219
:100820009140084319467047202A06DBCB17203A2F
:1008300041FA02F043EAE07306E041FA02F3D040E5
:10084000C2F12002914008431946704710B5141EAA
:1008500073F1000408DA401C41F1000192185B4179
:100860001A4301D120F0010010BD2DE9F04D924650
:100870009B4611B1B1FA81F202E0B0FA80F2203267
:100880009046FFF7B2FF04460F4640EA0A0041EAED
:100890000B0153465A46084313D0114653EA010050
:1008A00019D0C8F140025046FFF7AEFF05460E468C
:1008B000504659464246FFF798FF084305D00120AD
:1008C00004E020463946BDE8F08D0020054346EAA5
:1008D000E0762C4337430A986305E40AA0EB08004E
:1008E0000022FD0A44EA47540A3002D5002001469E
:1008F000E9E7010510196941DDE908450019694179
:10090000BDE8F04DA2E7C1F30A52C1F3130140F272
:10091000FF3341F480119A4202DA00200146704709
:1009200040F233439A42A2F2334202DC5242FFF7D2
:100930006BBFFFF75ABF0000064C074D06E0E068AA
:1009400040F0010394E8070098471034AC42F6D316
:10095000FFF71EFCB8720208D872020870B58C1836
:1009600010F8015B15F0070301D110F8013B2A11C3
:1009700006D110F8012B03E010F8016B01F8016BB0
:100980005B1EF9D12B0705D40023521E0DD401F8AC
:10099000013BFAE710F8013BCB1A921C03E013F875
:1009A000015B01F8015B521EF9D5A142D8D30020AA
:1009B00070BD0000014805F08BBF0000608300207F
:1009C0004A4910B5D1F8042322F44032C1F8042377
:1009D000D1F8042343681A43C1F8042301684A6824
:1009E00022F480724A6001684A68036942EA03227D
:1009F0004A6001684A6822F040724A6001684A68A9
:100A000083681A434A6001688A6822F400628A6037
:100A100001688A68C3681A438A60816A6FF07062ED
:100A2000D14201688A6822F070628A6001688A682F
:100A30000CD0836A1A438A6001688A6822F04052A7
:100A40008A6001688A68C36A1A4301E022F0405252
:100A50008A6001688A6822F002028A6001688A68F6
:100A6000836942EA43028A60016A002901684A6890
:100A700015D042F400624A6001684A6822F460427C
:100A80004A6001684B684FF46044426A94FAA4F4E7
:100A9000B4FA84F4521EA24013434B6002E022F4E5
:100AA00000624A600168CA6A22F47002CA62016880
:100AB000CA6A838B0E4C04EB03531A43CA62016863
:100AC0008A6822F400728A6001688A68036B42EACD
:100AD00043228A6001688A6822F480628A60016821
:100AE0008A68406942EA8020886010BD0020014089
:100AF0000000F0FF002800DC4042704738B5456830
:100B00000446014628460DF0DEFA00282BD0206866
:100B1000304A11280DD006DC0B2825D00E2833D002
:100B20000F2852D112E0282849D0B0F5107F4CD1BF
:100B300008E09268002A16D02146284601B0BDE898
:100B400030401047214628465268F7E7284602F011
:100B50003BFB0090406E0468684602F091FB002C5D
:100B600001D02846A04738BD284602F02DFB009052
:100B7000683002F07FFA009803216C3002F088FAA6
:100B8000684602F07DFB20E0E168486809680D29AD
:100B900002D0202913D105E0002810DD284613F0EB
:100BA00050FE06E0002804DD2846BDE8384013F07A
:100BB00048BE2846BDE83840022113F058BEE06820
:100BC00018B90021284600F09FF92046BDE83840BA
:100BD0000DF042BE04020020F0B5044685B08069E5
:100BE000B4F90850668A0027CDE90265CDE90017FF
:100BF0000490B4F90C00B4F91060C118B4F90A00FB
:100C0000B4F90E50104433462A4600F007F8054662
:100C1000616800F082F905B02846F0BD2DE9F04F7B
:100C200085B01F46DDE911B4DDE90E5690468946D0
:100C3000824603F01DFB16484C34CDE90204CDE991
:100C400000563B464246494650460DF04DFD0400D5
:100C500018D002F0B9FA1022594604900DF0B8FBF2
:100C6000049830220B493430FFF708FB094D0499F2
:100C70000C3D2868486604A802F002FB2868416819
:100C80002046884704F00AFC05B02046BDE8F08FF6
:100C9000FD0A000810020020F0B5044680688B4968
:100CA00089B051F82050606800287DD0052804D014
:100CB00006287AD0122879D1AEE0E86900284FD012
:100CC00095E80E008DE80F0004F110010FC905F042
:100CD00025F8002655F8260004F059F8A169E869BE
:100CE0000A1A216901446069304402F0AFFFA1692A
:100CF000E8690A1A21690144E069801B02F0A6FF35
:100D0000E169E8690A1A616901442069304403F025
:100D100053F8E169E8690A1A61690144A069801B16
:100D200003F04AF8761C022ED4DBA86804F02FF8F2
:100D3000E069E9696669431A206942183144801CF8
:100D4000521E03F0A7F8E169E869A2690B1A61690C
:100D50000144101A401C921E03F09CF8EE6913E047
:100D60005FF0000655F8260004F011F8E069831BD7
:100D7000A069821B606981192069304402F0DCFFA0
:100D8000761C022EEEDB0226D5E90301CDE9000137
:100D90006169E06908444310A069891C821B2069CD
:100DA000304402F017FF02E089E012E08AE0D5E962
:100DB0000501CDE90001E36960690121184401EBF7
:100DC0006001A0699B1E821B2069304402F002FF73
:100DD00078E0206802F0F8F9049020680EF0EAFF4D
:100DE00040B1A06808B1002008E00498006F28B165
:100DF000012003E00498406F00B10220049901EB48
:100E00008000C56E04A802F03BFA00231A4628466B
:100E1000216802F073FC55E0206802F0D5F90490D7
:100E2000866EEEB3B0F95C70A168D1B3032942D0ED
:100E30005FF0000100EB8101406D0C6C03F0D0FF0E
:100E4000204603F0A4FF05A803F0E6F8BDF814104F
:100E5000A88B0144ADF81410BDF81810081AADF8AD
:100E60001800BDF81600801CADF81600BDF81A0079
:100E7000801EADF81A000498B0F96020B0F95E1039
:100E800005A803F07CFE04A802F0FAF9022004F0A1
:100E900013F8304602F098F93A4605A9079001E0A8
:100EA0000BE006E002F01EFD0DF11C0002F0E8F977
:100EB00008E00121BEE70221BCE704A8F6E72068AC
:100EC0000EF028FC09B00020F0BD00008C6502087F
:100ED0000249014808607047504A02080402002095
:100EE00038B50D4604000ED003F0C2F9204602F0DA
:100EF0006BF900904565684602F0C2F920460EF095
:100F00004FF904F0CBFA38BD4FF480720029114636
:100F100001D00DF06CB90DF0B5B82DE9FF410E46CA
:100F200005004FF0010421D003F0A2F9284602F099
:100F30004BF90190876E01A8009702F0A1F93146A4
:100F4000684605F0D5F978B100980024B84208D079
:100F5000284602F039F901900099816601A802F053
:100F60008FF928460EF01CF904F098FA04B02046D8
:100F7000BDE8F081034900200246087010210248B4
:100F800006F0D3B8300100200008024003490120D8
:100F9000024608701021024806F0C7B83001002050
:100FA0000008024010B5064C022101222170608029
:100FB0001021044806F0B9F80020208110BD00007F
:100FC000300100200008024010B5074C04232370B4
:100FD000A080E180628001221021044806F0A5F87B
:100FE0000020208110BD00003001002000080240D8
:100FF00010B5134C2089401C80B220812178022931
:1010000001D0042904D16188884201D3FFF7B2FFDF
:101010002078032801D0042811D12089E188B0FB71
:10102000F1F201FB1201A2880648914201D201228D
:1010300000E00022BDE81040102106F076B810BD97
:101040003001002000080240FEE7F8B5446805467C
:10105000014620460DF037F8002836D028680B28C6
:1010600039D00E2805D00F2821D0B0F5107F3CD103
:101070002CE0204602F0A8F8009010F8746F477832
:10108000684602F0FDF820460EF094FE10B3E868C2
:101090004168002929DD0068202826D17F1CB7FB84
:1010A000F6F006FB1071204600F045F91DE02546DC
:1010B000204602F089F80090006F0468684602F04C
:1010C000DFF8002C01D02846A047F8BD294620466D
:1010D00013F042FD09E0204602F076F800907830E7
:1010E00001F0C8FF684602F0CBF82846BDE8F8409A
:1010F0000DF0B2BBF0B585B0B0F90850468A8469EE
:101100000296CDE903540027CDE90017B0F90C1081
:10111000B0F91050B0F90E40B0F90A00194410446B
:101120002B46224600F002F805B0F0BD2DE9F04F45
:1011300085B01D46DDE90E9716468A468346DDF8E2
:10114000488003F095F8254C0EB135B10AE02068CF
:101150008068006880470646F7E720688068006876
:10116000804705461D486FF07041001DC0688842E9
:1011700001D147F0010708F15400194ACDE90220D6
:10118000CDE900972B463246514658460DF0ACFA51
:1011900005001CD002F018F81022049011990DF0EF
:1011A00017F90E4904983C22091D3430FFF766F800
:1011B000049821680167022180F874100F21C1672B
:1011C00004A802F05DF8206841682846884704F0CA
:1011D00065F905B02846BDE8F08F000090040020B6
:1011E0004B1000082DE9FF470446006810B10EF0CF
:1011F000E1FD68B10022314850F8221060680A28E9
:1012000041D007DCF0B306280DD0072854D106E002
:101210000122F0E712280AD019284DD137E02046E4
:1012200010F0F6F948E0204611F030FB44E0206869
:1012300001F0CAFF0290B0F9548090F85650476C04
:10124000466B02A802F01CF8206800F039F88146CD
:1012500068460DF015FCBDF8001009EB05000844C8
:10126000ADF80000246A304603F0BAFD022003F016
:1012700023FE384603F08BFD42466946204602F0C5
:1012800031FB19E007E0204611F029FC14E08869E1
:1012900004B0BDE8F08720680EF03CFA206801F049
:1012A00093FF0390B0F90610B0F90220891A491C87
:1012B000C16703A801F0E4FF0020E9E7F86F020826
:1012C00038B5044602F0D4FF204601F07DFF0090BF
:1012D000C46F684601F0D4FF04F0E0F8204638BD42
:1012E00038B505004FF000040CD002F0C1FF2846CD
:1012F00001F06AFF009090F87540684601F0C0FF69
:1013000004F0CCF8204638BD38B50C46050011D0A5
:1013100002F0AEFF284601F057FF0090416BA1425A
:1013200003D0446328460DF03BFF684601F0A8FF58
:1013300004F0B4F838BD38B50C4605001BD002F0F7
:1013400097FF284601F040FF009090F87410A142EA
:101350000CD980F87540684601F092FF28460DF0E0
:101360001FFF052128460DF0AEFF02E0684601F0A0
:1013700087FF04F093F838BDFEB50D46040022D077
:10138000002D20D002F074FF204601F01DFF0190D7
:10139000866F01A8009601F073FF2946684604F0A5
:1013A000A7FF70B10098B04208D0204601F00CFFB2
:1013B00001900099816701A801F062FF20460DF0BD
:1013C000EFFE04F06BF8FEBD00B589B0242168463D
:1013D000FEF77BFF19200190034800688068416890
:1013E0006846884709B000BD9004002000EE901ABE
:1013F000DFED121AB7EE001AF8EE600A104900EE9F
:10140000E11A00EE900A10EE100AF8EE600A884227
:1014100061EE200A0BDBF2EE041A9FED0A1A00EED1
:10142000611ADFED091A81EE210A60EE200ABCEE96
:10143000E00A10EE100A80B2704700008FC2F53C3F
:101440000000A842000075440000FE4208B50022DA
:101450000221684600F078FEBDF8000008B10020C7
:1014600008BD012008BD00000248C18F21F0200105
:10147000C18770479C8900200649CA8F42F020022C
:10148000CA8710B142F0400001E022F04000C88756
:10149000704700009C8900200248C18F21F0100194
:1014A000C18770479C8900200248C18F41F010011C
:1014B000C18770479C8900201CB50DF00FFB0346C7
:1014C000002000900190034A0F21034802F008F821
:1014D0001CBD00003D910108B02502081CB50DF0AF
:1014E000FDFA0346002000900190034A0F210348B3
:1014F00001F0F6FF1CBD00001596010854270208F4
:101500001CB50DF0EBFA0346002000900190034A51
:101510002521034801F0E4FF1CBD000051720108C1
:10152000B01702081CB50DF0D9FA03460020009050
:101530000190034A0821034801F0D2FF1CBD0000BE
:10154000BD6F0108D01602081CB50DF0C7FA03469E
:10155000002000900190034A0D21034801F0C0FFD4
:101560001CBD0000D58D0108442402081CB50DF0F7
:10157000B5FA0346002000900190034A1821034861
:1015800001F0AEFF1CBD0000599A0108F8280208BE
:101590001CB50DF0A3FA0346002000900190034A09
:1015A0000C21034801F09CFF1CBD00005DA1010857
:1015B000982B02081CB50DF091FA0346002000900C
:1015C0000190034A1321034801F08AFF1CBD00006B
:1015D00021A50108E82C02081CB50DF07FFA03468E
:1015E000002000900190034A1A21034801F078FF7F
:1015F0001CBD0000BDAC0108FC2E02081CB50DF09E
:101600006DFA0346002000900190034A052103482B
:1016100001F066FF1CBD0000118701086C21020863
:101620001CB50DF05BFA0346002000900190034AC0
:101630000821034801F054FF1CBD0000818001080F
:10164000941E02081CB50DF049FA034600200090D4
:101650000190034A0521034801F042FF1CBD000030
:10166000117A0108BC1B02081CB50DF037FA0346BD
:10167000002000900190034A1521034801F030FF3B
:101680001CBD0000257B0108481C02081CB50DF09C
:1016900025FA0346002000900190034A15210348D3
:1016A00001F01EFF1CBD000041880108F82102085E
:1016B0001CB50DF013FA0346002000900190034A78
:1016C0001221034801F00CFF1CBD00003582010807
:1016D000741F0208014805F08DBA0000C087002081
:1016E000014805F087BA000020880020014805F075
:1016F00081BA000080880020014805F07BBA000014
:101700006087002001681823CAB2103AB2FBF3F2D6
:10171000054B6FF30901032A9B5CC36500D9091DC2
:1017200081650846704700007CD9010810B5014664
:1017300000208B698A6A4FF0C07453B1B3F5005F23
:1017400015D072B1012A0CD0022A0AD0032A09D17D
:1017500004E01AB1012A06D0022A03D1C96AC901DC
:1017600000D5012010BDC96AA142FAD010BD002ADF
:10177000F7D0012AF2D0022AF3D0032AF3D010BD09
:1017800030B50468256825F4802525600468636009
:101790008368402B036803D099600068C26030BD45
:1017A0009A600068C16030BD704730B500228C245B
:1017B0000B7883EA0005ED0702D084EA530300E0CA
:1017C0005B08521C4008D2B20B70082AF0D330BD1F
:1017D00070B50D4601F1190304460246193902F0AD
:1017E00061FA2B4604F11902A4F11900BDE870401A
:1017F000194602F057BA2DE9FC470E465FEA000988
:101800007FD002F035FD484601F0DEFC009090F8F4
:101810005470D0F85880456BC46C684601F030FDB8
:10182000B8F1000F04D0314648464246904761E087
:10183000122E18D006DC082E43D0102E3CD0112ECC
:1018400006D112E0132E21D01D2E43D01E2E3DD0E6
:10185000202E4FDB17B148460FF07FFDB1B248464E
:1018600012F008FE60B3611C27E04DB3284601F07A
:10187000ABFC05462146019003F0FEFC44192046CE
:1018800003F0A8FC01462346012210E0C5B128461A
:1018900001F09AFC05462146019003F0EDFC441945
:1018A000204603F097FC014623464FF0FF3248469E
:1018B0000FF000FB01A81BE0611E484600F014FC7D
:1018C00018E0BCB1611E484600F00EFC48460FF01F
:1018D00044FD0FE0484601F077FC0090012F12D044
:1018E000012180F854102146484600F0FDFB68466F
:1018F00001F0C6FC48460DF053FC00E001E003F0A7
:10190000CDFDBDE8FC87002180F85410EFE77CB5E1
:101910004568044628460EF04DFA064621462846FC
:101920000CF0D1FB002844D020680F283DD004DC07
:101930000B283FD00E2860D147E0A0F58070133807
:1019400004D0A0F580702D3857D11DE028460DF049
:101950009BFD284601F038FC009010F8561F81F0DE
:1019600004010170684601F08BFC0021284613F049
:10197000EFF9284601F028FC0090D0F884000021FF
:101980000DF059FD68461DE0E06860B1017A29B1AB
:101990000168284600F038F9012100E002212846BC
:1019A0000DF091FC29E00321F9E70121284613F00D
:1019B000CFF97CBD284601F007FC0190343001F0DE
:1019C00059FB01A801F05CFC17E0B6B1E068416882
:1019D000002912DD01681B290FD006DC09290CD073
:1019E0000A290AD00D2904D107E0212905D022298E
:1019F00003D02846FFF7FFFE7CBD20460CF02CFFED
:101A00007CBDF0B587B00DF1300E9EE8F0104FF0C0
:101A1000000E8DE8F05000F027F807B0F0BDF0B5EB
:101A200087B004460DF1080CD4E90567B0F90850F9
:101A3000408A8CE8E1000020CDE90010B4F90C00E8
:101A4000B4F91060C118B4F90A00B4F90E5010448A
:101A500033462A4600F008F8050002D0618A00F0FB
:101A6000FCFA07B02846F0BD2DE9F04F85B01F46BF
:101A7000DDE91254DDE90E6A90468946834602F09C
:101A8000F7FB0DF1040C4AF480501F4960340096B6
:101A90008CE813003B464246494658460CF024FE6B
:101AA00004002AD001F090FB1022049011990CF050
:101AB0008FFC0498242215496030FEF7DFFB049A5E
:101AC000012082F85500681C00D0012082F88800AF
:101AD000002D00DC08252DB21587002050875063AB
:101AE00004A86D1C01F0CCFB2946204612F0A5FB92
:101AF00018B920460CF0E8FE002403F0CFFC05B036
:101B00002046BDE8F08F00000F19000840020020B9
:101B10000021032803D2034901EB800081690846B4
:101B200070470000400200200148806870470000B4
:101B30004002002010B504002DED028B82B09FED15
:101B4000118A19D002F094FB204601F03DFB009071
:101B500090F844100C4AD0ED120A684652F8211051
:101B6000F8EEE00A00EE101AB8EE400A80EE808A25
:101B700001F086FB03F092FC02B0B0EE480ABDEC27
:101B8000028B10BD00000000BC4C020838B50500F7
:101B90004FF000040BD002F06BFB284601F014FB61
:101BA0000090846C684601F06BFB03F077FC2046E4
:101BB00038BDF8B515460C46060013D002F058FBA8
:101BC000304601F001FB009038B1032C05D200EB48
:101BD0008400856730460DF0E3FA684601F050FB5B
:101BE00003F05CFCF8BD70B50D46044602F040FB06
:101BF00034B12946204600F077FA20460DF0D0FA9D
:101C0000BDE8704003F04ABC2DE9F04186B00C46B7
:101C1000060055D002F02CFB304601F0D5FA0090BA
:101C2000406B98B301F0D0FA03900098806E03F0F7
:101C3000D7F8804630460CF0E4FF0746039802F0E0
:101C40004DFA0546009890F8601001F00301012953
:101C500016D002290DD0416EC06A00680844241ACB
:101C6000641E039804F0E8F90146002C0FDA002105
:101C700015E0781B401C00EBD070A4EB6004F0E78B
:101C8000406E791B081A241A641CEAE713E0AC4280
:101C900005DC02462146039804F06EF90146304601
:101CA00000F022FA03A801F0EBFA404603F098F89E
:101CB00030460DF075FA684601F0E2FA03F0EEFBEB
:101CC00006B0BDE8F08100002DE9F8431D46DDE9CE
:101CD000084916460F46804602F0CAFAB8F10000DD
:101CE00040D001F071FA2149009081652049C16519
:101CF0000021C0E91271E0E90F650121047280F84A
:101D00001A90017690F84C70684601F0B9FA87B1E4
:101D1000284611F0C6FF0546304611F0C2FF0CB14F
:101D2000401C6D1C854200DD28460146404600F0FF
:101D3000F3F8404614F0A2FB404601F045FA00904B
:101D400000F0BDF90B490978884205D10098C16CB3
:101D50004046491C00F0C8F9684601F091FA404637
:101D60000DF01EFA03F09AFBBDE8F883CD0A0108D6
:101D70007D640108840100202DE9F04190462DED9D
:101D8000068B82B00E46F0EE418AB0EE60AAB0EE4D
:101D9000409A070051D002F06BFA2A4850F826000A
:101DA00000EE100AB8EE408A28EE090A10EE100A7A
:101DB000FEF791FC9FED249B53EC192BFEF7ADFA37
:101DC00041EC100B14F0F4FF51EC100BFEF74BFC40
:101DD00028EE0A0A054610EE100AFEF77CFC53ECCA
:101DE000192BFEF79AFA41EC100B14F0E1FF51ECBD
:101DF000100BFEF738FC28EE280A044610EE100AF5
:101E0000FEF769FC53EC192BFEF787FA41EC100B37
:101E100014F0CEFF51EC100BFEF725FCCDE9006865
:101E20000346224629463846FFF74EFF02B0BDEC76
:101E3000068BBDE8F04103F031BB02B0BDEC068B70
:101E4000BDE8F081BC4C0208000000000000E03F4B
:101E500010B504002DED028B82B0B0EE408A31D077
:101E600002F006FA204601F0AFF9009090F8440025
:101E7000164951F8200000EE100A6846B8EE400AF4
:101E800028EE008A01F0FCF918EE100AFEF723FC98
:101E900041EC100BB5EEC08AF1EE10FA02DB9FEDBB
:101EA0000C1B01E09FED0C1B51EC100B53EC112BA4
:101EB000FEF733FAFEF7D7FB0146204600F0FCF8A8
:101EC00003F0ECFA02B0BDEC028B10BDBC4C020872
:101ED000000000000000E03F000000000000E0BF44
:101EE00000294FF0100101D00CF081B90CF0CAB8F4
:101EF00038B50D4604000ED002F0BAF9204601F0C4
:101F000063F90090856620460DF04AF9684601F0B5
:101F1000B7F903F0C3FA38BD7CB50C46060033D0E0
:101F200002F0A6F9304601F04FF90090B0F93810F0
:101F3000458FA14223D012DD406B80B101F044F9FE
:101F4000019004F079F8A04206DD2146019803F0E3
:101F500093F9019A0021115401A801F091F9684602
:101F600001F08EF9611B3046491C12F066F93046CB
:101F700001F02AF90090048730460DF011F9684607
:101F800001F07EF903F08AFA7CBD2DE9FC47884612
:101F90005FEA00094FF0000652D002F069F94846A6
:101FA00001F012F90090B0F93850446B684601F026
:101FB00067F90027B8F1000F44D04CB1204601F07A
:101FC00003F90190FEF78CF9461C01A801F058F9BD
:101FD000404604F031F80446A84200DD2C46214674
:101FE000404603F049F9451CA91B484612F0FDFA8A
:101FF00008B3484601F0E8F80090406B01F0E4F8BF
:102000002A4641460190FEF739F90198284400F824
:10201000017C0098C464B0F938108C4205D190F866
:102020005410012901D1641EC46401A801F028F9EB
:10203000684601F025F948460DF0B2F803F02EFA93
:10204000BDE8FC87484601F0BFF80090343001F04D
:1020500011F800984787C764EAE738B50C460500D1
:102060000FD002F005F9284601F0AEF8009018B143
:10207000046628460DF094F8684601F001F903F073
:102080000DFA38BDF8B515460C46060013D002F01F
:10209000EFF8304601F098F8009038B1032C05D2E3
:1020A00000EB8400C56630460DF07AF8684601F012
:1020B000E7F803F0F3F9F8BD002214F0BBB838B527
:1020C0000546406B002468B101F07EF8009004469C
:1020D000E96C03F0D1F8204403F07CF8044668462C
:1020E00001F0CEF8204638BD1CB50C4601F06CF866
:1020F0000090406BF0B101F067F8019003F09CFF95
:10210000009991F8542002B10122002C00DA002439
:10211000844200DD0446B1F93800801AA04200DA9A
:102120000446C86CA04200D0CC640020086501A819
:1021300001F0A6F8684601F0A3F81CBD014908604B
:10214000704700003C01002003464FF6FF7000EA94
:1021500082100A46194608F0C5BD03464FF6FF70C7
:1021600000EA82100A4619460EF00EBC10B51BF0AC
:1021700095FA064C2168884207D11BF0A9FAA1689C
:10218000401AE06021690844206110BD440100202C
:10219000FEE7F7EE001A20EE010A31EEC11A01EE59
:1021A000200A704770B5B3F5804F05D06FF07041CD
:1021B00040F82210002070BD50F82240084B8E8954
:1021C0001C40D1E9003543EA05138D6889692D0269
:1021D00045EA06452B430B43234340F82230E9E709
:1021E0000000F0CFF0B50C6850F82430114A1340CD
:1021F000D1E90125D1E903672A433E4332434E69C1
:1022000032438E693243CE6932430E6A32434E6A9C
:1022100032438E6A3243CE6A3243CE6B096B32430D
:102220000A431A43082D01D142F0400240F824200D
:102230000020F0BD8000F0FF30B500EB8202506856
:102240008D8900F04043D1E9000440EA04108C6815
:10225000240244EA054420430C8A074D05EB04544C
:1022600020430C7D6D0105EB04648969204308431C
:1022700018435060002030BD0000F0FF2DE9F0430E
:102280000446C56887B090468946002002F09BFD51
:10229000064625B1287910B146F0020001E026F08B
:1022A000020002F090FD2069012558B1D4E9021224
:1022B0008DE82600039563882288046841464846D5
:1022C000A0471EE0124F134B214638681B68427C22
:1022D000E068984730B9E088012801D0002001E08B
:1022E0003868806BA288E388A1680095CDE9041066
:1022F000CDE902320195638822884146484606F0BE
:102300007BFE07B03046BDE8F04302F05CBD000044
:1023100090010020880100201CB50024019401AC2C
:10232000009400F0E7F81CBD2DE9FF4F83B0814613
:1023300006988A46A0EB0A08109E00200090A2EBA7
:1023400009043568934654EA080018D02046FEF781
:10235000D1FB07464046FEF7CDFB87420BDA20460D
:10236000444680464846D14682465846DDF818B075
:10237000069001200090002C07DD204606E007B003
:102380004846BDE8F04F00F03BB96042A0420AD099
:102390004846D9466442C8F1000883464FF0FF37EB
:1023A000DDF818A000E001275148B8F1000F11D066
:1023B00004EBD4714FEA610B01DACBF1000B4C480E
:1023C0000068807E88B3002F02DA306820443060D5
:1023D00000257BE000990029016821D0897E11B198
:1023E0000027804615E007B05A4649465046BDE8EA
:1023F000F04F06F063BF28466D1C13F0EDFA38B9B4
:10240000D8F8000009EB0701406E4268504690473B
:102410007F1CA742EFDD6D1E356007B0BDE8F08F71
:102420008A7E1AB10027804617E019E0486E5A46A6
:102430005146036807B04846BDE8F04F18472846A4
:102440006D1C13F0C9FA38B9D8F8001009EB070071
:10245000496E4A68514690477F1CA742EFDDDAE794
:1024600000250FE008FB05B090FBF4F101EB0A003A
:10247000009951B11E4A09EB05011268526E52686B
:1024800090476D1CA542EDDDC7E7194909EB05032F
:102490000968496E4A6801461846F1E708FB05B02D
:1024A00090FBF4F101EB0A00019030683844306091
:1024B00013F092FA48B9009890B10D4809EB050164
:1024C0000068406E4268019890476D1CA542E5DDAA
:1024D0003068002F01DA20443060C01B30609CE778
:1024E000034909EB05000968496E4A680199EBE761
:1024F000900100202DE9FF470F46404916468046CF
:1025000009680C981D460A7E012A1CD0A8EB06001B
:10251000791B50EA01031CD0A2F1010914F0E4FC7C
:1025200000F58060824603F0D2FF00FB09F45046BC
:1025300003F0D2FF00FB09F1002C0CDAC4F50070A7
:10254000801240420AE00090324639464046FFF78A
:10255000EBFEBDE8FF8704F50074A012002904DA41
:10256000C1F5007189124C4202E001F500718C1234
:10257000002804DD411C01EBD171491003E000EBA0
:10258000D0714910401E00EBD0704210002C04DDC9
:10259000601C00EBD070401003E004EBD4704010DE
:1025A000641E04EBD47308EB0104ADF800403C1842
:1025B000ADF80240A8EB02045B10B21AADF804407B
:1025C000ADF808203144FC1AEA1AADF80C10284482
:1025D000ADF80A20ADF80E000023ADF806401A460B
:1025E0000421684600F07AF83946404610F0FAFBBC
:1025F0002946304610F0F6FBABE7000090010020C2
:10260000064A13681A7E012A05D0521E02EBD272C6
:10261000521000F005B85A6E526810479001002021
:102620002DE9F05F0646884640F2C32002FB00F128
:102630004FF47A7091FBF0F702FB02F102EBD270DB
:1026400001EB600B1446B118234A301B7F1C126843
:10265000526E13680A4641469847012538E000BF8C
:1026600005FB05F004FB040159451CDDBC4219DDE6
:10267000194B06EB050AA6EB05091B68AAF1010236
:1026800008EB04015B6E09F101001B689847124BCF
:10269000AAF10102A8EB04011B6809F101005B6EBD
:1026A0001B689847641E0C4B3219301B1B689246FE
:1026B00008EB05015B6E81461B689847064B524646
:1026C000A8EB05011B6848465B6E1B6898476D1CAC
:1026D000BD42C5DDBDE8F09F900100202DE9FF4F10
:1026E00043F6FF740F46664283B09B468146002145
:1026F0000BE000BF09EB8100B0F90200A04200DA54
:102700000446B04200DD0646491CB942F2DB674888
:102710000068406900280DD0B0F906101A46A1EBF8
:102720000B01B14200DA0E46B0F90200801AA04255
:1027300000DD0446B4E0DFF878A100200546CAF8C1
:10274000000088E0781E854201DA6B1C00E000235F
:1027500009EB850C09EB8302BCF90200B2F9021007
:10276000A04244D1A14215D139F92330059A39F953
:10277000251003EB020C4D4A05981268084404EB3F
:102780000B01526E6045136801DA62462AE0024688
:10279000604627E02846A4464FF000087A1E0BE06A
:1027A00008B1401E00E0781E09EB8003B3F9023047
:1027B000634504D108F101089045F1DB2346A342AB
:1027C00048D01A1B39F92500A1EB040C059B92EAAD
:1027D0000C0F09D4354A184404EB0B011268526EF1
:1027E00013680246984735E00EF00CF932E0A1423A
:1027F00030D001DBA04203DDA0422BDBA14229DC6B
:10280000E04688420ADC0346A04223DC0846A14297
:1028100020DBB8F900C0B2F9001008E00B46A14275
:1028200018DCA04216DBB2F900C0B8F90010E21AB9
:10283000A1EB0C0151430029A0EB030202DD01EBE7
:10284000620102E0A1EB6201491CC01A91FBF0F0A9
:102850006044C9E76D1CBD42FFF674AF0598009057
:1028600004EB0B00019000208046054613E011495F
:10287000B8F1000F31F915A009D0009901EB0A0257
:1028800008440A490968496E0B680199984788F01D
:10289000010850466D1C064909688D42E7DB641C3F
:1028A000B4427FF748AF07B0BDE8F08F9001002039
:1028B0007C0300202C8E002010B5002002F05CFA72
:1028C0006FF07F4002F063FA012002F0D7FA002097
:1028D00002F0E2FA002002F0EFFA002002F073FAB0
:1028E0000448006802F07CFABDE81040002002F0C5
:1028F00097BA00008C01002070B50C46054600F028
:1029000023F9A8682168C16261680163A168416315
:10291000490707D5D0E90021C0E90012D0E902211A
:10292000C0E90212A18981842169002903D001DC58
:102930004FF00001016270BD2DE9F0411E461746BF
:102940008846054600F000F9AC686822414604F567
:102950008670FDF793FC2846B8472846B04728699B
:1029600080688047A062BDE8F081000010B5044691
:1029700000F0EAF8A0681149144AC0F8AC101049F8
:10298000C0F8A8100F49C0F8B0100F49C0F8B8102F
:102990000021C0F8BC101368C0F8B4300C4BC0E97B
:1029A00032315168C0F8C41030F8261F21F00301FD
:1029B00020F82A1B0749416410BD0000B15A0108E4
:1029C00079600108795A010883540108FC0100204C
:1029D00093550108A959010810B5044600F0B4F850
:1029E000A46810481021C4F8E4000F48C4F8E800B7
:1029F0000E48C4F8EC000E48C4F8F0000D48C4F8C6
:102A0000A0000D48C4F8A400D4F8C400C4F8FC0029
:102A1000D4F89420204690471020A06307486064B3
:102A200010BD000055220108F5330108892A00086D
:102A3000B92B00081D54010891650108586502086A
:102A400070B50C46054600F07FF80A48AA6814B134
:102A5000012C08D103E008490160084902E0084957
:102A6000016008494160016842F8B41F4068106184
:102A700070BD0000FC0100203B540108075501080F
:102A80006354010853550108F8B5846815460F468C
:102A900094F8260080074CD5D4F80031204698479A
:102AA0000646D4F804312A46394620469847D4F8D9
:102AB000983005461BB10022012120469847206925
:102AC000B04201DD012000E00020A169B14201DA3D
:102AD000012100E0002108436169A94201DD0121D3
:102AE00000E000210843E169A94201DA012100E088
:102AF000002108430AD060680022401E009023682D
:102B0000D4F8A870114620465B1EB847D4F8AC3004
:102B10002A46314620469847D4F8A01020468847D8
:102B2000D4F8983005466BB1012200212046984721
:102B300008E0D4F8AC3020469847D4F8A0102046DE
:102B4000884705462846F8BD70B5044680680028C9
:102B500012D14FF4BA75284600F0A8FA2A4600218F
:102B6000A06003F036FCA0680221C1840121046446
:102B700001620249C0F8081170BD0000812B0008F5
:102B800010B590B0044620220A496846FDF776FB4E
:102B900008492022203108A8FDF770FB606B5DF822
:102BA0002010C4F8001108A951F82000C4F804014D
:102BB00010B010BD6C3202082DE9F84384689846C5
:102BC000154694F826000F46800740D5D4F800310A
:102BD000204698470646D4F804312A46394620460E
:102BE000984705462069B04201DD012000E0002041
:102BF000A169B14201DA012100E0002108436169C5
:102C0000A94201DD012100E000210843E169A94258
:102C100001DA012100E0002108430AD060680022A7
:102C2000401E00902368D4F8A870114620465B1E11
:102C3000B847D4F8AC302A46314620469847D4F8F5
:102C4000A42001B041462046BDE8F0431047D4F827
:102C5000AC30F2E72DE9F04FDFF828B191B04FF03A
:102C6000FF35DBF80030B3F922100691DE69B3F9C5
:102C70002490F469A189814206D8E289824203D373
:102C8000471AD4F8008012E0D4E9018100296FD0FE
:102C90000A8882426CD84D88854269D3801A82B2F4
:102CA000486800EB8200B0F90070B0F90250781C5F
:102CB0005ED0307EA17C10FB01FA217CCDE90701BA
:102CC000B3F92A60304606F0B7FDC0B20E90DBF8CB
:102CD000000007FB0A81A37C826B0127CDE9041267
:102CE000CDE90273C069089AC17E807ECDE90001FA
:102CF000DDE90603494606F07FF9681C18D046F066
:102D0000020006F099FDDBF80000A37C05FB0A81B8
:102D1000826BCDE90273CDE90412C069089AC17EC5
:102D2000807ECDE90001DDE90603494606F064F93D
:102D3000DBF800005D46C069417E007E814214D907
:102D4000022E12D086F0040006F076FD2868C069D5
:102D5000027EC37E12FB0391437E857E089A06980D
:102D60004B4412FB050206F0D3FA0E9806F064FD00
:102D7000DBF80000627C418C1144418411B0BDE855
:102D8000F08F00009001002004480068C069C0690D
:102D900009B1027C0A60407C70470000900100206D
:102DA000022008807047C06982898A4202D8C2899D
:102DB0008A4210D2806880B102888A420DD8438846
:102DC0008B420AD3406800EB8100A0EB8200B0F98F
:102DD0000000002801DB0120704700207047000040
:102DE0002DE9F043304C034687B020681946B0F90E
:102DF0002A60C069C06900F086F8002850D0416898
:102E00000088181A01EBC0053046AF7806F014FDB3
:102E1000814620686A680123816BCDE90237CDE9DC
:102E20000421C169CB7E8A7ECDE900230B7EB0F9F7
:102E300024102A78B0F9220006F0DEF82068C06974
:102E4000417E027E91421FD9C07E11FB00F812FB29
:102E500000F7022E18D001F0E4F8064601F0AAF8B7
:102E600001F095FF21682A78CB69B1F92200DB7E59
:102E700012FB0302B1F9241001EB0803394406F0F8
:102E800047FA304601F083FF484606F0D5FC20683B
:102E90006A78C369B0F922109B7E12FB031141844A
:102EA00007B0BDE8F08300009001002030B50F4C62
:102EB00005460B4620682946C069C06900F023F822
:102EC000002812D04168008824682A1A0120E46989
:102ED00000EBC200085CA47E10FB04F0002B04D0C1
:102EE00011F8321011FB04F1196030BD900100207F
:102EF00001200880704700B5C06900F004F8002880
:102F000000D0012000BD06E002888A4202D8428833
:102F10008A4202D280680028F6D170472DE9F0413C
:102F20000025154E154C18E02069C5EB051700EB80
:102F3000C7007022001D3168FDF7A0F9206900214B
:102F400040F8371000EBC70000F10C018161011D52
:102F50000A1DC0E90F126D1C4164A0688542E3DBC5
:102F600011F0C6F82169C0EB001001EBC000001D94
:102F70003060BDE8F081000090010020A403002033
:102F800070B50F490D480860084603F0A9F90C4CCC
:102F9000143CA068C0EB0010C500284600F086F87D
:102FA0002A460021206103F014FA4FF0FF30206020
:102FB00002F0DCFABDE8704011F09AB891490108BE
:102FC000B803002010B5040009D001F051F92046E3
:102FD0000DF036FE044602F061FA204610BD0020D6
:102FE00010BD38B5054601F043F92846FFF7EAFF62
:102FF000040009D000F0E8F82A460021009003F010
:10300000E8F9684600F03CF902F048FA204638BD7D
:10301000024A106021F00300506070478C8D002040
:1030200010B5040016D001F023F90B48406B10F8DE
:10303000341059B1022909D2042101EBC4014158CD
:1030400048680DF0FBFC204612F0D4F9BDE81040B2
:1030500002F024BA10BD0000CC8C0020002805D05E
:10306000034AD16B016001B14860D0637047000032
:10307000CC8C002010B5044601F0FAF82068FFF768
:10308000CFFF00202060BDE8104002F007BA00002A
:1030900070B50D460646002405E000BF06EB84002F
:1030A000FFF7E8FF641CAC42F8DB70BD2DE9F0418E
:1030B000044611F08BF92848E41C24F00305016C48
:1030C0002D1DA94200D90D46C46B13E054F8042C01
:1030D000AA420ED184B1216809B162684A60616870
:1030E00009B122680A60C26BA24231D12168C16372
:1030F0002EE02468002CE9D18046816BC0680F184F
:1031000057F8040C3E1A306838B1002012F0BCFAAF
:1031100057F8040C3E1A3068D0B97068A84217DB23
:103120003044441B3046241D12F066FAD8F80C10C7
:10313000491BC8F80C10D8F814102944C8F814100A
:103140007068401B02D031460DF078FC44F8045CF6
:103150002046BDE8F0810000CC8C002010B5002492
:1031600011F034F90C490F2001EBC002526C1AB176
:1031700001EBC000406C08E0401EF5D508E0416856
:10318000A14200D90C46806810B180680028F6D1B1
:10319000A4F10C0010BD0000CC8C0020002138B13F
:1031A0000449042202EBC000496B085841680C39FD
:1031B00008467047CC8C002002488169491C816117
:1031C00070470000CC8C00200549CA69521CCA61B6
:1031D000496B01EBC0010A78521C0A7000F068B814
:1031E000CC8C00207CB506460C460846FFF7EAFE6C
:1031F000050020D0FEB13046FFF7D0FFA04200DA34
:10320000044601F035F82846FFF7DEFF009030460F
:10321000FFF7DAFF0146019022460098FDF72EF8ED
:10322000684600F02DF801A800F02AF83046FFF7B4
:10323000F7FE02F033F928467CBD000010B501F01E
:1032400017F8FFF78BFF64220849B0F5800F04D907
:1032500090FBF2F4086A444303E0096A4143B1FB7E
:10326000F2F402F01BF9204610BD0000CC8C0020C7
:1032700002488169491E816170470000CC8C0020A2
:103280000A4902684B6B52F8082C03EBC202137810
:10329000022B03D3CB690BB15B1ECB611178491EA6
:1032A000117000210160084670470000CC8C00209E
:1032B000002806D00349042202EBC000496B0858DD
:1032C00008307047CC8C002070B50C46054601F0E4
:1032D00005F8C1B223462846BDE87040002200F040
:1032E00001B80000F0B52D271C68B0F1004F08D0E0
:1032F000002600280DDA651C1D602770404201245D
:1033000008E0651C01261D606FF000402770491E13
:1033100001E00024091BC9B22AB3491EC9B222E048
:103320000C46491EC9B2944205D1124C27781C683C
:10333000651C1D602770104C54F8215090FBF5F46B
:10334000E4B20A2C11D804FB150011B90EB1641CAB
:10335000E4B20A2C02D10124491CC9B21D686F1CB9
:1033600030341F602C700029DAD1196800200870F1
:10337000F0BD000084010020BC4C020810B50028FC
:1033800007DD0A682B24531C0B60147009680022A7
:103390000A7010BD70B514460D46064600F068FF71
:1033A000204600F04BFE0300174804EB840109D0CF
:1033B00050F8210041688068711A2A1A184601F0F5
:1033C0001FFD1CE000EB8104A268B24201D0012283
:1033D00000E00022E368AB4201D0012300E00023BB
:1033E0001A430CD0236943B150F82100816840682A
:1033F0006A1A311A184601F07BFCC4E90265BDE87F
:10340000704002F04BB800002C8F002010B5C2B203
:10341000CBB2D21A00D5524293B25B43C0F307221B
:10342000C1F30724121B00D55242000C92B2A0EB4C
:10343000114002FB023200B2002801DA404200B221
:1034400080B200FB002010BD10B50021084600F03E
:1034500087FE43F6FF725042BDE810401346014616
:10346000AFF300802DE9FC411C4615460E46074689
:1034700000F0FEFE042006F0DFF980461248C06826
:10348000C16C006D0F4406440D440444ADF8007057
:10349000ADF80450ADF80260ADF8064068460CF097
:1034A00015FB07E023462A463146384605F030FF33
:1034B0000CF0CEFA0028F5D1404606F0BDF901F037
:1034C000EDFFBDE8FC81000084010020B0F906306A
:1034D000B0F90420B0F90210B0F90000FFF7C2BF44
:1034E0002DE9F8431C00DDE9089816460F4605460D
:1034F00002D10BF0F3FA044600962E6843464A4682
:1035000021462846B047061E39D00BF0DCFA81462A
:10351000698A30460AF06BFE30460CF062F9484684
:103520000CF05FF94FF000080CE000BFCDF8008010
:1035300055F81CCF00231A4649462846E04700B3F9
:103540000CF04FF97F1E002FF0DC1D2148460BF0D8
:10355000CCFF601C12D000F08BFE0BF0F3FA30B100
:10356000FFF7A6FE8469B44201D02000F8D1B4422E
:1035700002D030460CF09CF801F090FF3046BDE8D8
:10358000F88330460BF0A0F90020F8E72DE9F04170
:103590001C4616460D460746022B02DB0020BDE8FE
:1035A000F0811C20FFF782FD0028F8D00DB10561E5
:1035B0000AE0094A52F8241009B905E011460A68E0
:1035C000002AFBD1096901618461868200210160C2
:1035D0004160C0E90217E2E7A801002070B51D466E
:1035E000FFF7D4FF040009D000F00EF8E06800688F
:1035F00020B90348006800EB85008465204670BD53
:1036000090010020FFF72ABD70B590B38269022AAD
:1036100030DA1E4C54F8221019B944F8220032E076
:1036200019464B68002BFBD106E0CB68C5681B68C8
:103630002D68AB4203DD09680029F6D11AE0C1B15B
:10364000CB68C6681B683668B3420CD1838A012BED
:1036500005D008E01946DB681B68AB4203DB0B684A
:10366000002BF7D129B14B6833B118604A6842602A
:1036700004E0FFE7012070BD44F822004860884262
:1036800000D100210160002070BD0000A8010020D1
:1036900010B503E00468FFF7B7FF20460028F9D112
:1036A00010BD00000A4A816952F82130834202D1DC
:1036B000036842F82130416809B102680A60016874
:1036C00009B142684A600021016041607047000012
:1036D000A801002000207047022801DB002070476D
:1036E000054951F8200004E0C16809680029F6D0B6
:1036F00000680028F8D17047A80100202DE9F843A0
:103700001D461646884604000CD0FFF75DFD00906C
:10371000006807686846FFF7B3FD2B46324641460E
:103720002046B847BDE8F8832DE9F041044601F092
:103730001AFF06191EE000BF00F078FB052F00DD20
:10374000052700F095FD11480568FFF735FD2C00B1
:1037500017D000BF01F0A2FE641EFBD1384601F075
:10376000FDFE1DB100F084FD6D1EFBD1FFF780FD55
:1037700001F094FE01F0F7FE371A002FDCDCBDE803
:10378000F081384601F0EAFEF0E70000B0030020C7
:103790007FB51E4614460D46CDF80CD003AB002273
:1037A0003146FFF79FFD22462946684600F086F81D
:1037B0007FBD00002DE9FC4706005FD000F058FDFA
:1037C00000F054FC3C4C81462068B0F9228000F0A7
:1037D00091FC216807468A8CD01B888441E000BF99
:1037E00047F6FF71304602F00BFC82460146304638
:1037F00002F0DCFB2168054691F82C0000F0030084
:10380000012841D002283BD000204A8C101A48845D
:10381000ADF800006A1E1044ADF80400888CADF8C5
:103820000200A9F101010844ADF806006A465146BC
:10383000304602F091F82168BDF8020088845146B4
:10384000304601F019FD064430780A281ED00D28B4
:103850001CD0BDF80000216828444884307818B195
:10386000761C30780028BBD12068818C3944818453
:10387000818D21F00301818501F010FEBDE8FC87F8
:1038800005EBD5704010C0E72846BEE7206890F8E9
:103890002C1001F0030101290BD0022909D0018C61
:1038A000418431780A29D9D1828C02EB09018184C3
:1038B000D4E7A0F82280F4E79001002070B5144608
:1038C0000D46064600F0D4FC054800684584848413
:1038D0003046FFF76FFFBDE8704001F0DFBD00002C
:1038E0009001002047F6FF73AFF300802DE9FC4103
:1038F0001F4690460D4606004FF000041AD000F017
:10390000B7FC65B128460BF04DFF040007D0024616
:103910002946684602F0E1FB68460BF043FF3B4650
:1039200042462946304602F06FF820460BF03AFF37
:1039300001F0B4FDBDE8FC812DE9FF4F87B0904652
:10394000894607007DD000F093FCD9F80040D9F8F3
:10395000045021B228B2401A401C029000F086FBAD
:10396000064618F00C0F1ED038460A9A029901F04C
:10397000CFFD08F00C01042904D0082902D00C293D
:1039800011D104E0291400FB1610401C09E0211499
:10399000C1EB254200FB1620401C00EBD07001EB70
:1039A000600060F31F4448460BF0FCFE5FEA000B2A
:1039B00009D00246494604A8CDE9044502F08DFB32
:1039C00004A80BF0EFFEA6F1010A38460A9A029904
:1039D00002F0CEFC03900AEB244060F31F45CDE9D2
:1039E00000453846039902F0E1FA18F003010ED0C1
:1039F00001292CD002290ED1B9F90420B9F90010FF
:103A0000521A101A00EBD07001EB600001E0B9F817
:103A10000000ADF800006A463846039901F09CFFAB
:103A200038460A9A029902F099FC074406EB2440B2
:103A300060F31F4438780028C7D158460BF0B2FE17
:103A400000E001E001F02AFD0BB0BDE8F08FB9F80D
:103A50000410081A401CDCE77CB514460D460646E7
:103A600000F006FC11480068C16C006D0D44044470
:103A70003188681E0844ADF80400ADF80050718824
:103A8000601E0844ADF80600ADF8024068460CF030
:103A90001DF806E0224629463046FEF7EFFB0BF004
:103AA000D7FF0028F6D101F0F9FC7CBD9001002081
:103AB0001CB50A460146684602F004FC00F0D8FB3B
:103AC0002548BDF80010006830F84C2F1144ADF8BF
:103AD0000010BDF8021082881144ADF80210BDF844
:103AE000041002881144ADF80410BDF80610808857
:103AF0000844ADF8060068460BF0E8FF27E000BF79
:103B0000BDF900400BE000BFBDF90210204605F0F2
:103B1000A1FBBDF90610204605F09CFBA41CBDF9D5
:103B20000400A042F0DABDF902400AE0BDF900004D
:103B3000214605F08FFBBDF90400214605F08AFB04
:103B4000A41CBDF90600A042F0DA0BF081FF0028AA
:103B5000D6D101F0A3FC1CBD900100202DE9F04F4F
:103B600087B09B46DDE9109892460C46054600F06A
:103B70007FFB16480168C86C096D47190E1900EBE8
:103B80000A0501EB0B04ADF81070ADF81450ADF858
:103B90001260ADF8164004A80BF098FF88B1DFF86A
:103BA00030B04FF0000ACDE90098CDE902BA2B46BB
:103BB0002246394630460FF045F80BF049FF002801
:103BC000F1D101F06BFC07B0BDE8F08F900100204F
:103BD000BD9200082DE9F04F87B09B46DDE91098B3
:103BE00092460C46054600F043FB16480168C86C37
:103BF000096D47190E1900EB0A0501EB0B04ADF82E
:103C00001070ADF81450ADF81260ADF8164004A86D
:103C10000BF05CFF88B1DFF830B04FF0010ACDE95E
:103C20000098CDE902BA23462A46314638460FF0BD
:103C300009F80BF00DFF0028F1D101F02FFC07B0BF
:103C4000BDE8F08F90010020FD9100082DE9FC41B6
:103C500014460D46064600F00BFB114F3968C86C40
:103C6000096D054404440E44ADF80050ADF804401D
:103C7000ADF80260ADF8066068460BF027FF08E07B
:103C8000386822463146406E0368284698470BF054
:103C9000DFFE0028F4D101F001FCBDE8FC8100004A
:103CA000900100202DE9F0411C4615460E460746BE
:103CB00000F0DEFA0C480168C86C096D0744054441
:103CC0000E440C4400200BF001FF07E023462A4677
:103CD00031463846FEF720FB0BF0BAFE0028F5D13E
:103CE000BDE8F04101F0DABB900100207CB50C4644
:103CF000064600F0BDFA0F4D2868C16C006D0E44F9
:103D00000444ADF80460ADF80060ADF80640ADF8CD
:103D1000024068460BF0DAFE07E028682146406E54
:103D20004268304690470BF093FE0028F5D101F031
:103D3000B5FB7CBD900100202DE9FC411C461646D8
:103D40000D46074600F094FA1A480168087ECA6CCE
:103D5000096D17440D440C44401E391A1644ADF841
:103D600000103118ADF80410291A2044ADF80600EF
:103D7000ADF8021068460BF0A9FE15E03246294660
:103D8000384605F03BFA32462146384605F036FA09
:103D9000621E691C384605F091FA621E691C3046A5
:103DA00005F08CFA0BF054FE0028E7D101F076FB09
:103DB000BDE8FC81900100207CB514460D46064606
:103DC00000F056FA0F480068C16C006D0E440544BF
:103DD0000444ADF80060ADF80460ADF80250ADF8F1
:103DE000064068460BF072FE06E022462946304641
:103DF00005F064FA0BF02CFE0028F6D101F04EFB22
:103E00007CBD00009001002070B50C46054600F016
:103E10001FF910B10121C0E9001400F029FA284669
:103E20000BF098FDBDE8704001F038BB10B50024E0
:103E300000E0012400F004F80028FAD1204610BD6B
:103E4000094810B50068002410B1804700B1012472
:103E50000AF0B8FD00B101240448006810B18047A1
:103E600000B10124204610BDB4010020B0010020A3
:103E70001CB5002100910191694600F099FF04E012
:103E8000FFF7D4FF08B901F013FB00980028F7D022
:103E900001981CBD2DE9FC411C4615460E460746FF
:103EA00000F0E6F910480068C16C006D0F4406444C
:103EB0000D440444ADF80070ADF80450ADF8026054
:103EC000ADF8064068460BF001FE07E023462A469F
:103ED0003146384605F01CFA0BF0BAFD0028F5D142
:103EE00001F0DCFABDE8FC8190010020B0F9063059
:103EF000B0F90420B0F90210B0F90000FFF7CABF12
:103F000008B50B46002805D0009281888268C088D9
:103F100000F001F808BD10B50828029C30D008DC7C
:103F200004FB01F401280AD0022813D0042804D18C
:103F30001CE0102828D020282CD0002010BD04EB35
:103F4000D30003F00701105CC1F10701C84000F085
:103F5000010010BD04EB93000621105C01EA43014F
:103F6000C1F10601C84000F0030010BD04EB53008E
:103F7000D907105C02D000F00F0010BD000910BD81
:103F800004FB0130105C10BD481004FB003032F817
:103F9000100010BD881004FB003052F8200010BD46
:103FA000034951F82000C1688A6A082110470000BF
:103FB000A801002010B500F05BF905F0D9F905F073
:103FC00081FA044601F06AFA204610BD10B5044695
:103FD00000F04EF9054800210068C069426820469B
:103FE0009047044601F05AFA204610BD9001002087
:103FF00070B50C46054600F03BF9064821460068BE
:10400000C069426828469047044601F047FA2046B6
:1040100070BD000090010020002801D00AF030BDE2
:10402000704710B500F024F905F0AAF905F04AFA36
:10403000044601F033FA204610BD0000002102289A
:1040400002D2024951F82010084670479C03002014
:104050001FB500210191029103912A210091694627
:104060000BF034FA039804B010BD000010B500F056
:10407000FFF804480068C069447E01F00FFA20464A
:1040800010BD00009001002010B500F0F1F801F023
:1040900083FF044601F002FA204610BD70B51446B5
:1040A0000D46064600F0E4F822462946304605F063
:1040B0009BF910B1002028602060BDE8704001F03D
:1040C000EDB970B50C46054600F0D2F821462846F9
:1040D00001F0C0FFBDE8704001F0E0B910B5044642
:1040E00001F0AAFF01462046BDE8104001F05EBF86
:1040F00001F039BA10B5002400F0BAF80B48006896
:1041000090F82C1001F00C01042904D0082906D0E5
:104110000C2907D103E0C069047E641E02E0C06977
:10412000007E440801F0BAF9204610BD900100203D
:10413000407E7047017EC07E11FB00F0704700009A
:10414000024951F82000006900687047A80100206A
:10415000024951F82000006940687047A80100201A
:1041600070B50D46044600F083F8204610F03AF88A
:104170000446284610F03EF8044301F08FF920462B
:1041800070BD00002DE9F0411948016821F00101DE
:1041900001601848012585601749016000681749CA
:1041A000884200D0FEE701F007FB154E2E2030704C
:1041B00001F0DBF9134810F0CFF817F039FF07468C
:1041C00005F03AF910B105F04BF938B905F051F99D
:1041D000044605F03AF9214605F028FB002108467F
:1041E00000F02CFE0AF032FF75703846BDE8F08111
:1041F000002000E000300240C2A507F4CDB5E8B5CC
:1042000084010020988D00202DE9FC411C461546B4
:104210000E46074600F02CF8012000F0D4FD804641
:1042200012480068C16C006D0F4406440D440444FC
:10423000ADF80070ADF80450ADF80260ADF806407E
:1042400068460BF043FC07E023462A4631463846D1
:1042500005F05EF80BF0FCFB0028F5D1404600F0BD
:10426000B2FD01F01BF9BDE8FC81000090010020C7
:1042700070B5184CE06820B101F073F961688842AC
:1042800004D001F085F901F06CF96060E068401C31
:10429000E06001281CD10FF02BFF05462068854205
:1042A00016D0002813DBFFF715FA01462068C0EB93
:1042B0000012206900EBC2025167C5EB0511064AE6
:1042C00000EBC100011D1160406FFFF7E1F92560AF
:1042D00070BD0000A40300209001002010B5011E55
:1042E00001DD024600E04A42064B012053F820401F
:1042F000944202D8401C0A28F8DB002900DA401C4E
:1043000010BD0000BC4C02081CB5040004D10E48CE
:104310000068046E002C16D0FFF7AAFF2046FEF7B7
:1043200053FF009044696846FEF7AAFF4CB120464F
:10433000FEF74AFF019081688968884701A8FEF767
:104340009FFF01F0ABF81CBD9001002001490A4617
:1043500000F002B801F0FFFF2DE9F04387B01546E9
:104360000C465FEA000846D0FFF782FF002000F00D
:104370002AFD814621480068066E4046FEF724FF6C
:1043800000900068806900F0DBFC074640F6FF7093
:10439000C44204D10098B0F90440B0F90650009826
:1043A000611E0289ADF804401144ADF8081041893E
:1043B000681E0844ADF80650ADF80A000AF00EF980
:1043C0006846FEF75DFF01A80BF080FB06E02A4679
:1043D0002146404600F088FB0BF03AFB0028F6D15E
:1043E000384600F0ADFC304600F090F9484600F049
:1043F000EAFC01F053F807B0BDE8F083900100201B
:104400002DE9FE4F984691468A46834600270C9E2A
:10441000FFF72EFF184819490068407C51F82040EA
:10442000E1680968042903D02468002CF8D100E071
:104430001CB9FFF751F9041E1BD0E0680121C26AC4
:1044400020469047050011D02469A0688047401C91
:1044500002D10B4C46F001060096CDE901544346CB
:104460004A465146584600F0E5F9074601F016F86D
:104470003846BDE8FE8F000090010020A801002012
:10448000E465020838B504001CD0FFF7F1FE0E48C1
:104490000068006EA04201D100F044FC2046FEF707
:1044A00093FE0090406908B100F0E1FF00980068B9
:1044B000FFF7A8F86846FEF7E3FE2046FEF7B0FDDA
:1044C00000F0ECFF38BD0000900100202DE9FF4F07
:1044D00083B09A468B460746FFF7CAFEDFF838914D
:1044E000D9F80000447C4D4800570128204606DDDD
:1044F00004F0A8FF0546204604F0B8FF05E004F0EC
:1045000089FF0546204604F08BFF04461FB302A92D
:1045100001A8FFF7D6FDB7F90000002800DA002057
:10452000B7F902608046002E00DA00260198411992
:10453000B7F90400491E10F004F905460298011964
:10454000B7F90600491E10F0FCF8A5EB0802841B21
:10455000521C641C03E04FF0000846462A46BAF19C
:10456000000F01D1C4F1000A002A51DD002C4FDDFB
:1045700010980090534631464046FFF741FF5FEAEE
:10458000000A10D000F07CF80746A04206D0D9F807
:104590000000806C10B132210BF048FE504600F054
:1045A000B5F8002523E059460598884700F076FFC6
:1045B000012007B0BDE8F08F611BB94202DA504616
:1045C00000F088F83DB172194146504600F0C6F837
:1045D0005046FFF799FE59460598884710480168EC
:1045E00009B1002088475046FFF7B0FE3D44A54280
:1045F000E2DB5046FFF746FF002000F087F8A742B5
:1046000006D0D9F80000806C10B133210BF00EFEFB
:1046100000F044FF0020CCE790010020C8010020FA
:10462000FC03002038B505004FF0000411D0FFF75F
:104630001FFE2846FEF7C8FD0090006800698068EC
:10464000804705F0C3FA04466846FEF719FE00F0FD
:1046500025FF204638BD38B504000ED0FFF708FE10
:104660002046FEF7B1FD00F1180400906846FEF701
:1046700007FE00F013FF204638BD002038BD0000C3
:1046800038B504460025FFF7F3FD1CB9084800685B
:10469000046E44B12046FEF797FD0090B0F90A5031
:1046A0006846FEF7EDFD00F0F9FE284638BD000033
:1046B0009001002070B50546002428460CF076FDD8
:1046C000641C18B1BDE8704000F07AB8052CF4DB2A
:1046D00070BD000038B50C46050004D10A480068DA
:1046E000056E002D0FD0FFF7C3FD2846FEF76CFDC9
:1046F0000090B0F90A10A14200DD44816846FEF73F
:10470000BFFD00F0CBFE38BD90010020F8B5054696
:10471000FFF7AEFD104E3068046ECDB10CB100F065
:1047200001FB0AF089F82846FEF74EFD009031683B
:104730000D660068FEF768FF6846FEF7A1FD05F00C
:10474000D9F805F053F800BF00F0A8FE2046F8BDE8
:1047500000F0E8FAF8E70000900100207CB515466B
:104760000E46040004D115480068046E002C24D0C5
:10477000FFF77EFD2046FEF727FD2DB20090C58095
:1047800034B2848005F032F80098406980B1FEF7B9
:104790001BFD009A0190B2F908108180B2F90A203D
:1047A000C28011B10AB10480458001A8FEF768FDFE
:1047B0006846FEF765FD00F071FE7CBD90010020AB
:1047C00001490A4600F002B801F0FFFF7FB5154627
:1047D0000C4606002DD0FFF74BFD3046FEF7F4FCEB
:1047E00040F6FF710190CC4203D1B0F90440B0F91A
:1047F00006500289611E1144ADF80840ADF80C1056
:104800004189681E0844ADF80E00ADF80A5001A8B1
:10481000FEF736FD02A80BF059F906E02A462146BC
:10482000304600F049F90BF013F90028F6D100F0FA
:1048300035FE7FBD2DE9FF4FDFF8E8B083B01C46A1
:10484000DBF80010DDE9106092464FF000084B7C69
:1048500042461299FEF79AFE050060D028698068EA
:10486000804705F0B3F981460AFB09F1C91DCF085D
:10487000FEF7E4FCF10705D1C11700EB9170801041
:1048800000EB4000002C09DC1FB11838B0FBF7F03A
:1048900000E000206442A04200DC0446F00707D19B
:1048A0000090DDE903012346524600F065FD804695
:1048B000002C03DC2846FEF7A5FE30E004FB07F0E1
:1048C0001830F10702D0FEF77DFB01E0FEF789FB0F
:1048D00006001CD0FEF778FC0190056003998180EA
:1048E0000499C180A0F808A04481C0F81480C0E9F0
:1048F000037901A8FEF7C4FC1298AE602861DBF8CA
:104900000000407CA861304607B0BDE8F08F284623
:10491000FEF778FEB8F1000001D0FEF781FB002021
:10492000F2E70000900100202DE9F74F8EB0144609
:1049300089460E98FEF748FC0990B0F908B0B0F926
:104940000A600068006940680C9009A8FEF798FCAE
:10495000564D574F2868407C57F82000C1688A6A36
:10496000082190470790182801D320200790286835
:10497000407C57F820000069069003C80B904D4812
:10498000814201D0012000E000200A90002000F0C8
:104990000DFE00287DD1286809EB0B01B0F90C2031
:1049A000891A491E002902DDABEB010500E05D46D6
:1049B000B0F90810494505DDA1EB090189446D1ADC
:1049C000089101E000210891002D6BDDB0F90E2067
:1049D000A119891A491E002902DDA6EB010800E091
:1049E000B046B0F90A00A04204DD061B3444A8EB2F
:1049F000060800E00026B8F1000F53DD089801908A
:104A00000DA95F46DDF830A00E980091FFF723FE58
:104A1000774300EB870101982B4601EB8002009958
:104A20004846CDE900A1214601F090F80090002809
:104A300038D00A98E8B1DDE906322946009800F03E
:104A4000B5FEB0B90698009FDA46D0F810C0BCF1A8
:104A5000000F05D004235A4639463846E04708E09F
:104A60000B993868884701C7AAF101005FEA000A7C
:104A7000F6D100990020079ACDE9030105900120A5
:104A80000090CDE9010221460346641C2A464846AF
:104A900000E007E004F0B0FAA8F10100761C5FEA3C
:104AA0000008ABD111B0BDE8F08F000090010020EC
:104AB000A8010020E3940008F8B515460E46074605
:104AC000FEF782FB009000681621C068426A002051
:104AD000904704466846FEF7D3FB002C03D02A46D5
:104AE00031463846A047F8BDF8B516460F460500D2
:104AF00012D0FEF769FB009044696846FEF7C0FBE0
:104B00002846FFF78FFD0346082800DD2CB132460A
:104B10003946284611F052FDF8BD3246394628463E
:104B200011F0ECFEF8BD10B5002821D009B30AB38E
:104B3000B1F90040B2F900309C4200DA234603800C
:104B4000B1F90240B2F902309C4200DA23464380B8
:104B5000B1F90440B2F904309C4200DD2346838061
:104B6000B1F90610B2F90620914200DC1146C1806D
:104B700010BD11460A6802604968416010BD0028F6
:104B80000BD003880B4403808388194481804188BB
:104B900011444180C1881144C180704770B50E4DE9
:104BA0000446D5E90001884209D10C49884201D167
:104BB0003C3000E00C3807C884E8070006E090E8C5
:104BC0000E0084E80E000FF02BFB2860207A0028EE
:104BD00000D0012070BD0000900300209C8E0020BA
:104BE0000448D0E90010814201D101207047002023
:104BF0007047000090030020054A10B5034911607A
:104C000011F062FBBDE8104000F066B961EC0008ED
:104C1000B801002070B50025FFF72AFB094CD4E944
:104C2000002082420AD0D2E9005610460FF002FB63
:104C30002060314628460AF04FFB012500F02EFC8B
:104C4000284670BD800300202DE9FC41154DDDE9AB
:104C500008742D68B5F90860864200DD3046B5F964
:104C60000C60964200DA3246824219DBB5F90A60DE
:104C70008E4200DD3146B5F90E509D4200DA2B46DA
:104C80008B420DDB00E02C46E5682D6825B1042D34
:104C900002D02568002DF6D1CDE9007404F090FC17
:104CA000BDE8FC8190010020B0F90220B1F9063086
:104CB0009A4213DCB1F90220B0F906309A420DDCB9
:104CC000B0F90020B1F904309A4207DCB1F90010C4
:104CD000B0F90400814201DC0120704700207047D8
:104CE0000146024870220068FBF7C8BA9001002014
:104CF00070B515460E4604000AD0FFF7B9FA2A46E9
:104D00003146204610F08AFFBDE8704000F0C6BB77
:104D100070BD0000024970220968FBF7AFBA0000BD
:104D20009001002010B5FFF7A3FA04F015FD04F080
:104D3000E1FD09F053FCBDE8104000F0AFBB0000FE
:104D400070B50B4D04462868467CFFF791FA022C9B
:104D500009D22046FEF7C0FC28B128684474FFF74A
:104D6000E1FF0448046000F099FB304670BD00008C
:104D700090010020F402002010B50446FFF778FAF5
:104D8000204604F009FDBDE8104000F087BB10B5D7
:104D90000446FFF76DFA204604F036FDBDE81040EA
:104DA00000F07CBB0149886070470000840100204E
:104DB0001FB50022019202922A22039100926946B5
:104DC0000AF084FB1FBD10B50446FFF751FA2046D8
:104DD00004F032FD044600F061FB204610BD0000E7
:104DE00070B50446FFF744FA04480068C56904B189
:104DF000C46100F053FB284670BD00009001002004
:104E000070B514460D460646FFF732FA224629468B
:104E1000304604F02DFD044600F040FB204670BDF6
:104E200070B50546FFF724FA03480068847E85764E
:104E300000F034FB204670BD9001002070B50C4698
:104E40000546FFF715FA0948224605800848048000
:104E500008480068417C084850F82100C1680B6A86
:104E600029469847BDE8704000F018BBD0010020EB
:104E7000D201002090010020A801002070B5054655
:104E8000FFF7F6F903480068047E057600F006FB9C
:104E9000204670BD9001002070B50446FFF7E8F988
:104EA00004480068B0F92C50848500F0F7FA2846D1
:104EB00070BD00009001002070B50446FFF7D8F9DE
:104EC00004480068B0F92A50448500F0E7FA284603
:104ED00070BD00009001002002480068002800D04A
:104EE00000477047D403002002498A6802B98860ED
:104EF000FFF7F2BF800300202DE9FC4198461646DB
:104F00000D460746FFF7B4F91C20FEF76AF80400C7
:104F10002DD01C491A4808602046FEF755F900902C
:104F200015B9FFF7E5F8054600980760C0E9046584
:104F3000A0F80C806846FEF7A3F920460FF07AFB34
:104F4000114DA86840B90120A86005F10C010F4877
:104F50000860084601F0C4F92046FEF735F90190D3
:104F6000296849B181602C6001A8FEF789F900F039
:104F700095FA2046BDE8FC8100212C608160F3E7B2
:104F8000B94F0008B4010020C0030020A549010862
:104F900010B504000ED0FFF76BF9204610F046FB69
:104FA000204611F043FA2046FEF73AF8BDE81040DB
:104FB00000F074BA10BD00002DE9F04188B0002562
:104FC000FFF756F9184C676825E000BFFFF790F827
:104FD00006466068FEF7F8F801904169891B0029D0
:104FE00015DC616802960491016903914668666068
:104FF000D0F8008001A8FEF743F902A8414688478F
:1050000066B160680125B84205D1002506E001A817
:10501000FEF736F902E060680028D7D100F03EFACA
:1050200008B02846BDE8F081C003002038B50C4622
:10503000050011D0FFF71CF92846FEF7C5F80090CF
:105040008089204201D0012400E000246846FEF758
:1050500017F900F023FA00E00124204638BD38B5E6
:10506000040017D0FFF704F92046FEF7ADF80090D2
:10507000FFF73EF801460098826911444161684695
:10508000FEF7FEF8204611F0D1F920460FF0D2FAD3
:1050900000F004FA38BD38B50C4605000BD0FFF718
:1050A000E7F82846FEF790F8009084616846FEF71E
:1050B000E7F800F0F3F938BD38B505460020286060
:1050C0000648046844B12046FEF77EF80090006967
:1050D00028606846FEF7D4F8204638BDC00300209B
:1050E00038B504004FF000000D46086011D020468E
:1050F000FEF76AF80090846844B16846FEF7C0F88D
:105100002046FEF761F80090006928606846FEF7C7
:10511000B7F8204638BD000038B50024FFF7A8F8DE
:105120000948406860B1FEF74FF80090FEF7E0FFD5
:10513000009949690C1A00D500246846FEF7A0F8CA
:1051400000F0ACF9204638BDC003002010B50024A3
:10515000FFF78EF80348406800B1012400F09EF983
:10516000204610BDC00300203EB504460C220E4967
:10517000FBF7BDF8002813D00B4894E80E0080E838
:105180000E000A48026862B194E80B008DE80B003B
:10519000684601A99047002802D16846FFF72CFD18
:1051A0003EBD2046FAE70000088E0020D401002012
:1051B00070B50C460546FFF75BF8054821460068C8
:1051C000C26828469047044600F068F9204670BD42
:1051D0009401002010B50446FFF74AF8044800681F
:1051E000016820468847044600F058F9204610BD63
:1051F0009401002010B50446FFF73AF8044800680F
:10520000416820468847044600F048F9204610BD12
:105210009401002001490968896808479401002029
:105220002DE9F041084E04460568306801682846BB
:1052300088470746306841682846884728442060E8
:105240003846BDE8F0810000940100202DE9F041CE
:1052500000250E4680462C46064F06E0396808EBCE
:1052600004004968884704446D1CA642F6DC2846C1
:10527000BDE8F081940100202DE9F0410C4606467E
:105280000025064F05E038684168304688470644E7
:105290000544641EF7D22846BDE8F0819401002041
:1052A0002DE9F0411E46069C1746884605463A46BB
:1052B000A8687F1C3346D0F804C041462846E04722
:1052C000641EF4D1BDE8F08170B5B0F90040091B4F
:1052D000B0F904408C422CDD00F11404B0F9025006
:1052E0000069521B02FB0040CA1800EBE104521E89
:1052F000D010B0EBE10501F007034FF0FF0102F021
:10530000070221FA03F0C2F1070201FA02F1CEB25C
:1053100021780FD001436D1E04F8011B002D05DD1F
:10532000FF2229462046FAF7C9FF2C442078304353
:10533000207070BD30400143217070BD10B5B0F9D0
:105340000030B0F90240C91A00F114030069121BC1
:1053500002FB003000EBE10001F00703027880213E
:10536000D9400A43027010BDB0F9061002695143DA
:105370001430FAF7AABF00002DE9F843804602F185
:105380000F000011470003FB07F01C461546894635
:105390001430FDF726FE060018D0FEF769FF3046F0
:1053A000FDF712FF0090A0F80080A0F80290858021
:1053B000C480074981600121818107616846FDF74A
:1053C0005FFF00F06BF83046BDE8F8830020FBE794
:1053D000706F020870B5B0F90660B0F904400B6850
:1053E00000F1140596421BDD0069A34202FB005048
:1053F00000EBE30214DA641EE010A0EBE30512F800
:10540000010B03F00704A040C4B206E045B1083325
:1054100012F8014B23F007036D1E002CF6D004E0B8
:10542000002070BD6006040E5B1C2006FAD5FF2C20
:1054300007D0184602E06406240E401C6606FAD423
:1054400000E0D81DC443640705D006E012F8014B04
:10545000FF2C09D108306D1EF8D5C01A401C0B6016
:1054600070BD6206140E401C2206FAD4F5E738B56A
:105470000546FEF7FDFE2846FDF7A6FE0090818951
:10548000491E0CB284816846FDF7FAFE14B928461D
:10549000FDF7C6FD00F002F838BD00000348C16802
:1054A000491EC16001D100F07BB87047A403002001
:1054B00070B5FEF7DDFE14480568FDF77DFE2C0093
:1054C00004D000BFFFF7EAFF641EFBD10F4CA068B9
:1054D00048B1FFF73BFE48B1FFF71EFE40B1A1689F
:1054E00031B1884704E0FFF731FE08B911F034F814
:1054F0001DB1FEF7BDFE6D1EFAE7FDF7B9FEBDE872
:105500007040FFF7CBBF0000B0030020D4030020A1
:105510002DE9F04116460F4605460024FEF7A8FE89
:1055200032463946284600F019FF054408B1641C8C
:10553000F6E7FFF7B3FF2046BDE8F08110B54FF462
:1055400080410448FDF764FDBDE810400248FFF7C4
:1055500029BC000070060020A039020817F016BB15
:10556000704716F07ABF18F0ADB870477CB50024CC
:105570006846009416F0D9FE044D0121286001A868
:10558000019416F031FF68607CBD0000040000202B
:1055900002484FF0FF31006816F0F2BE0400002010
:1055A0000148006816F0C4BE040000200EB508B122
:1055B00002AA00E00022002301A9684600F086FC50
:1055C0000EBD0000074910B50C7818B10120087015
:1055D000801E03E0002008706FF07F4003F0F6FCAF
:1055E000204610BDCA0100202DE9F041984616461C
:1055F0000C4688B3FEF772FD074608F00300012849
:1056000025D0022817D0B4F9005000BFFEF72EFDB8
:10561000014608F00C0004282BD00C281DD0B4F94A
:10562000020035807080EA19521E0844B280401E84
:10563000F080BDE8F081B4F90400B4F90010401A1C
:10564000C01B401C00EBD07001EB6005DEE7B4F935
:105650000400C51B6D1CD9E710E0B4F90600B4F9CD
:105660000220801A401A401C00EBD07002EB600050
:10567000D7E7B4F90600401A401CD2E72068306032
:1056800060687060D5E7000010B5082A0EDC03469C
:10569000012A18D0022A56D0042A76D010F8042BFA
:1056A00003F8012B491EF9D1012010BD102A08DC96
:1056B0004FEA000230F8043B22F8023B491EF9D1C0
:1056C000F2E7002010BD10F8042BD207120E491E7D
:1056D00034D010F8044B491E04F0010442EA84124D
:1056E0002CD010F8044B491E04F0010442EA441285
:1056F00024D010F8044B491E04F0010442EA0412BD
:105700001CD010F8044B491E04F0010442EAC40204
:1057100014D010F8044B491E04F0010442EA84023C
:105720000CD010F8044B491E04F0010442EA440274
:1057300004D010F8044B04F00104224303F8012BB9
:105740000029C0D1B0E710F8042B9207120E491EB1
:1057500015D010F8044B491E04F0030442EA041269
:105760000DD010F8044B491E04F0030442EA8402F1
:1057700005D010F8044B04F003042243491E03F83B
:10578000012B0029DFD18FE7FFE710F8042B120768
:10579000120E491E05D010F8044B04F00F042243EA
:1057A000491E03F8012B0029EFD17DE738B500240D
:1057B000009400F01DF838BD0B4810B58169002930
:1057C00010D101218161FFF7B9FEFDF7D9FB04F08B
:1057D000A3F8054905481C310860BDE8104008469B
:1057E00000F07EBD10BD0000840100203149010899
:1057F0002DE9F0410D460699044601B901461F689E
:10580000082A09DC0E46012A1AD0022A5BD0042A93
:105810007DD0082A13D18DE0102A07DCD3F810C000
:105820000E46BCF1000F04D0022389E00020BDE841
:10583000F08101CCB84726F8020B6D1EF9D189E042
:1058400001CCB847C0074FEA10686D1E36D001CCB6
:10585000B84748EA801000F0FF086D1E2ED001CC3A
:10586000B84748EA401000F0FF086D1E26D001CC72
:10587000B84748EA001000F0FF086D1E1ED001CCAA
:10588000B84748EAC00000F0FF086D1E16D001CCF2
:10589000B84748EA800000F0FF086D1E0ED001CC2A
:1058A000B84748EA400000F0FF086D1E06D001CC62
:1058B000B84740EA080000F0FF086D1E06F8018BAB
:1058C000002DBDD146E001CCB84780074FEA1068F3
:1058D0006D1E16D001CCB84748EA001000F0FF0852
:1058E0006D1E0ED001CCB84748EA800000F0FF08DA
:1058F0006D1E06D001CCB84740EA080000F0FF0852
:105900006D1E06F8018B002DDDD123E0FFE701CCF1
:10591000B84700074FEA10686D1E06D001CCB847A3
:1059200040EA080000F0FF086D1E06F8018B002D0C
:10593000EDD10FE0D3F810C0BCF1000F04D001236B
:105940002A462046E04705E001CCB84706F8010B9F
:105950006D1EF9D101206AE77CB5064628480D4640
:10596000006868B100200AF0B1F806E06A462946EE
:1059700030460BF033FD0AF06BF80028F6D17CBD01
:10598000106800901F4C506801902268BDF800001C
:1059900032F84C1F0844ADF80000BDF802009188B1
:1059A0000844ADF80200BDF8040011880844ADF8C1
:1059B0000400BDF8060091880844ADF8060068466A
:1059C0000AF084F80EE000BF2068BDF800106A46B7
:1059D0004184BDF802108184294630460BF0FEFC5C
:1059E0000AF036F80028EFD1206830F8221F428DE7
:1059F000891A01804188C28D891A41807CBD0000CE
:105A0000CC010020900100202DE9FF4F85B09A467F
:105A100090460D46FEF72AFB4FF00009DDF814B062
:105A200006464C4625B1286800906868019002E05F
:105A30006846FEF7F1FA18F00C0F02D05546002721
:105A400013E0BDF902402DE029467F1C059800F0C7
:105A5000D7FA01466D1A0598FFF70EFC0599084420
:105A6000059005A800F010FB08B9002DECD108F056
:105A70000C00042804D0082802D00C2812D105E01C
:105A8000BDF9060007FB1604641C0BE0BDF9060017
:105A9000BDF90210401A07FB1600401C00EBD07045
:105AA00001EB60045546CDF814B043E02946059853
:105AB00000F0A6FA07460146ED1B059800F076FABD
:105AC00018F003010ED0012939D002290DD1BDF9FA
:105AD0000410BDF90020891A091A01EBD17102EBFB
